{"abi":[{"type":"constructor","inputs":[],"stateMutability":"nonpayable"},{"type":"function","name":"COOLDOWN_TIME","inputs":[],"outputs":[{"name":"","type":"uint256","internalType":"uint256"}],"stateMutability":"view"},{"type":"function","name":"FAUCET_AMOUNT","inputs":[],"outputs":[{"name":"","type":"uint256","internalType":"uint256"}],"stateMutability":"view"},{"type":"function","name":"allowance","inputs":[{"name":"","type":"address","internalType":"address"},{"name":"","type":"address","internalType":"address"}],"outputs":[{"name":"","type":"uint256","internalType":"uint256"}],"stateMutability":"view"},{"type":"function","name":"approve","inputs":[{"name":"spender","type":"address","internalType":"address"},{"name":"amount","type":"uint256","internalType":"uint256"}],"outputs":[{"name":"","type":"bool","internalType":"bool"}],"stateMutability":"nonpayable"},{"type":"function","name":"balanceOf","inputs":[{"name":"","type":"address","internalType":"address"}],"outputs":[{"name":"","type":"uint256","internalType":"uint256"}],"stateMutability":"view"},{"type":"function","name":"burn","inputs":[{"name":"from","type":"address","internalType":"address"},{"name":"amount","type":"uint256","internalType":"uint256"}],"outputs":[],"stateMutability":"nonpayable"},{"type":"function","name":"canClaim","inputs":[{"name":"account","type":"address","internalType":"address"}],"outputs":[{"name":"","type":"bool","internalType":"bool"}],"stateMutability":"view"},{"type":"function","name":"claimFaucet","inputs":[],"outputs":[],"stateMutability":"nonpayable"},{"type":"function","name":"decimals","inputs":[],"outputs":[{"name":"","type":"uint8","internalType":"uint8"}],"stateMutability":"view"},{"type":"function","name":"lastClaim","inputs":[{"name":"","type":"address","internalType":"address"}],"outputs":[{"name":"","type":"uint256","internalType":"uint256"}],"stateMutability":"view"},{"type":"function","name":"mint","inputs":[{"name":"to","type":"address","internalType":"address"},{"name":"amount","type":"uint256","internalType":"uint256"}],"outputs":[],"stateMutability":"nonpayable"},{"type":"function","name":"name","inputs":[],"outputs":[{"name":"","type":"string","internalType":"string"}],"stateMutability":"view"},{"type":"function","name":"symbol","inputs":[],"outputs":[{"name":"","type":"string","internalType":"string"}],"stateMutability":"view"},{"type":"function","name":"timeUntilNextClaim","inputs":[{"name":"account","type":"address","internalType":"address"}],"outputs":[{"name":"","type":"uint256","internalType":"uint256"}],"stateMutability":"view"},{"type":"function","name":"totalSupply","inputs":[],"outputs":[{"name":"","type":"uint256","internalType":"uint256"}],"stateMutability":"view"},{"type":"function","name":"transfer","inputs":[{"name":"to","type":"address","internalType":"address"},{"name":"amount","type":"uint256","internalType":"uint256"}],"outputs":[{"name":"","type":"bool","internalType":"bool"}],"stateMutability":"nonpayable"},{"type":"function","name":"transferFrom","inputs":[{"name":"from","type":"address","internalType":"address"},{"name":"to","type":"address","internalType":"address"},{"name":"amount","type":"uint256","internalType":"uint256"}],"outputs":[{"name":"","type":"bool","internalType":"bool"}],"stateMutability":"nonpayable"},{"type":"event","name":"Approval","inputs":[{"name":"owner","type":"address","indexed":true,"internalType":"address"},{"name":"spender","type":"address","indexed":true,"internalType":"address"},{"name":"value","type":"uint256","indexed":false,"internalType":"uint256"}],"anonymous":false},{"type":"event","name":"Claimed","inputs":[{"name":"claimer","type":"address","indexed":true,"internalType":"address"},{"name":"amount","type":"uint256","indexed":false,"internalType":"uint256"}],"anonymous":false},{"type":"event","name":"Transfer","inputs":[{"name":"from","type":"address","indexed":true,"internalType":"address"},{"name":"to","type":"address","indexed":true,"internalType":"address"},{"name":"value","type":"uint256","indexed":false,"internalType":"uint256"}],"anonymous":false}],"bytecode":{"object":"0x60c060405260086080908152672aa9a21021b7b4b760c11b60a0525f9062000028908262000228565b506040805180820190915260048152635553444360e01b602082015260019062000053908262000228565b506002805460ff191660061790553480156200006d575f80fd5b506002546200009d903390620000889060ff16600a620003ff565b6200009790620f424062000416565b620000a3565b62000446565b6001600160a01b038216620000fe5760405162461bcd60e51b815260206004820152601b60248201527f45524332303a206d696e7420746f207a65726f20616464726573730000000000604482015260640160405180910390fd5b8060035f82825462000111919062000430565b90915550506001600160a01b0382165f90815260046020526040812080548392906200013f90849062000430565b90915550506040518181526001600160a01b038316905f907fddf252ad1be2c89b69c2b068fc378daa952ba7f163c4a11628f55a4df523b3ef9060200160405180910390a35050565b634e487b7160e01b5f52604160045260245ffd5b600181811c90821680620001b157607f821691505b602082108103620001d057634e487b7160e01b5f52602260045260245ffd5b50919050565b601f82111562000223575f81815260208120601f850160051c81016020861015620001fe5750805b601f850160051c820191505b818110156200021f578281556001016200020a565b5050505b505050565b81516001600160401b0381111562000244576200024462000188565b6200025c816200025584546200019c565b84620001d6565b602080601f83116001811462000292575f84156200027a5750858301515b5f19600386901b1c1916600185901b1785556200021f565b5f85815260208120601f198616915b82811015620002c257888601518255948401946001909101908401620002a1565b5085821015620002e057878501515f19600388901b60f8161c191681555b5050505050600190811b01905550565b634e487b7160e01b5f52601160045260245ffd5b600181815b808511156200034457815f1904821115620003285762000328620002f0565b808516156200033657918102915b93841c939080029062000309565b509250929050565b5f826200035c57506001620003f9565b816200036a57505f620003f9565b81600181146200038357600281146200038e57620003ae565b6001915050620003f9565b60ff841115620003a257620003a2620002f0565b50506001821b620003f9565b5060208310610133831016604e8410600b8410161715620003d3575081810a620003f9565b620003df838362000304565b805f1904821115620003f557620003f5620002f0565b0290505b92915050565b5f6200040f60ff8416836200034c565b9392505050565b8082028115828204841417620003f957620003f9620002f0565b80820180821115620003f957620003f9620002f0565b610b0480620004545f395ff3fe608060405234801561000f575f80fd5b5060043610610106575f3560e01c806370a082311161009e57806395d89b411161006e57806395d89b41146102175780639dc29fac1461021f578063a9059cbb14610232578063bf3506c114610245578063dd62ed3e14610258575f80fd5b806370a08231146101d057806376697640146101ef5780637d263245146101fa57806392d82dbe14610204575f80fd5b8063313ce567116100d9578063313ce5671461017557806340c10f19146101945780634fe15335146101a95780635c16e15e146101b1575f80fd5b806306fdde031461010a578063095ea7b31461012857806318160ddd1461014b57806323b872dd14610162575b5f80fd5b610112610282565b60405161011f919061094b565b60405180910390f35b61013b6101363660046109b1565b61030d565b604051901515815260200161011f565b61015460035481565b60405190815260200161011f565b61013b6101703660046109d9565b610379565b6002546101829060ff1681565b60405160ff909116815260200161011f565b6101a76101a23660046109b1565b61043b565b005b6101a7610449565b6101546101bf366004610a12565b60066020525f908152604090205481565b6101546101de366004610a12565b60046020525f908152604090205481565b610154633b9aca0081565b6101546201518081565b610154610212366004610a12565b61051a565b610112610564565b6101a761022d3660046109b1565b610571565b61013b6102403660046109b1565b61066c565b61013b610253366004610a12565b610678565b610154610266366004610a2b565b600560209081525f928352604080842090915290825290205481565b5f805461028e90610a5c565b80601f01602080910402602001604051908101604052809291908181526020018280546102ba90610a5c565b80156103055780601f106102dc57610100808354040283529160200191610305565b820191905f5260205f20905b8154815290600101906020018083116102e857829003601f168201915b505050505081565b335f8181526005602090815260408083206001600160a01b038716808552925280832085905551919290917f8c5be1e5ebec7d5bd14f71427d1e84f3dd0314c0f7b2291e5b200ac8c7c3b925906103679086815260200190565b60405180910390a35060015b92915050565b6001600160a01b0383165f9081526005602090815260408083203384529091528120545f19811461042757828110156103f95760405162461bcd60e51b815260206004820152601d60248201527f45524332303a20696e73756666696369656e7420616c6c6f77616e636500000060448201526064015b60405180910390fd5b6104038382610aa8565b6001600160a01b0386165f9081526005602090815260408083203384529091529020555b6104328585856106a7565b95945050505050565b6104458282610876565b5050565b335f90815260066020526040902054610466906201518090610abb565b4210156104c05760405162461bcd60e51b815260206004820152602260248201527f4661756365743a20636f6f6c646f776e20706572696f64206e6f742070617373604482015261195960f21b60648201526084016103f0565b335f8181526006602052604090204290556104df90633b9aca00610876565b604051633b9aca00815233907fd8138f8a3f377c5259ca548e70e4c2de94f129f5a11036a15b69513cba2b426a9060200160405180910390a2565b6001600160a01b0381165f908152600660205260408120548190610542906201518090610abb565b905080421061055357505f92915050565b61055d4282610aa8565b9392505050565b6001805461028e90610a5c565b6001600160a01b0382165f908152600460205260409020548111156105e35760405162461bcd60e51b815260206004820152602260248201527f45524332303a206275726e20616d6f756e7420657863656564732062616c616e604482015261636560f01b60648201526084016103f0565b6001600160a01b0382165f908152600460205260408120805483929061060a908490610aa8565b925050819055508060035f8282546106229190610aa8565b90915550506040518181525f906001600160a01b038416907fddf252ad1be2c89b69c2b068fc378daa952ba7f163c4a11628f55a4df523b3ef906020015b60405180910390a35050565b5f61055d3384846106a7565b6001600160a01b0381165f9081526006602052604081205461069e906201518090610abb565b42101592915050565b5f6001600160a01b0384166107085760405162461bcd60e51b815260206004820152602160248201527f45524332303a207472616e736665722066726f6d207a65726f206164647265736044820152607360f81b60648201526084016103f0565b6001600160a01b03831661075e5760405162461bcd60e51b815260206004820152601f60248201527f45524332303a207472616e7366657220746f207a65726f20616464726573730060448201526064016103f0565b6001600160a01b0384165f908152600460205260409020548211156107c55760405162461bcd60e51b815260206004820152601b60248201527f45524332303a20696e73756666696369656e742062616c616e6365000000000060448201526064016103f0565b6001600160a01b0384165f90815260046020526040812080548492906107ec908490610aa8565b90915550506001600160a01b0383165f9081526004602052604081208054849290610818908490610abb565b92505081905550826001600160a01b0316846001600160a01b03167fddf252ad1be2c89b69c2b068fc378daa952ba7f163c4a11628f55a4df523b3ef8460405161086491815260200190565b60405180910390a35060019392505050565b6001600160a01b0382166108cc5760405162461bcd60e51b815260206004820152601b60248201527f45524332303a206d696e7420746f207a65726f2061646472657373000000000060448201526064016103f0565b8060035f8282546108dd9190610abb565b90915550506001600160a01b0382165f9081526004602052604081208054839290610909908490610abb565b90915550506040518181526001600160a01b038316905f907fddf252ad1be2c89b69c2b068fc378daa952ba7f163c4a11628f55a4df523b3ef90602001610660565b5f6020808352835180828501525f5b818110156109765785810183015185820160400152820161095a565b505f604082860101526040601f19601f8301168501019250505092915050565b80356001600160a01b03811681146109ac575f80fd5b919050565b5f80604083850312156109c2575f80fd5b6109cb83610996565b946020939093013593505050565b5f805f606084860312156109eb575f80fd5b6109f484610996565b9250610a0260208501610996565b9150604084013590509250925092565b5f60208284031215610a22575f80fd5b61055d82610996565b5f8060408385031215610a3c575f80fd5b610a4583610996565b9150610a5360208401610996565b90509250929050565b600181811c90821680610a7057607f821691505b602082108103610a8e57634e487b7160e01b5f52602260045260245ffd5b50919050565b634e487b7160e01b5f52601160045260245ffd5b8181038181111561037357610373610a94565b8082018082111561037357610373610a9456fea26469706673582212200629719bcdcb4c155ae5e645236e4b0081b53884e31449673067f3321836a36864736f6c63430008140033","linkReferences":{}},"methodIdentifiers":{"COOLDOWN_TIME()":"7d263245","FAUCET_AMOUNT()":"76697640","allowance(address,address)":"dd62ed3e","approve(address,uint256)":"095ea7b3","balanceOf(address)":"70a08231","burn(address,uint256)":"9dc29fac","canClaim(address)":"bf3506c1","claimFaucet()":"4fe15335","decimals()":"313ce567","lastClaim(address)":"5c16e15e","mint(address,uint256)":"40c10f19","name()":"06fdde03","symbol()":"95d89b41","timeUntilNextClaim(address)":"92d82dbe","totalSupply()":"18160ddd","transfer(address,uint256)":"a9059cbb","transferFrom(address,address,uint256)":"23b872dd"},"id":21}