{"abi":[{"type":"constructor","inputs":[{"name":"_token","type":"address","internalType":"address"},{"name":"_protocolName","type":"string","internalType":"string"},{"name":"_initialAPY","type":"uint256","internalType":"uint256"}],"stateMutability":"nonpayable"},{"type":"function","name":"aiOptimizer","inputs":[],"outputs":[{"name":"","type":"address","internalType":"address"}],"stateMutability":"view"},{"type":"function","name":"deposit","inputs":[{"name":"amount","type":"uint256","internalType":"uint256"}],"outputs":[{"name":"","type":"uint256","internalType":"uint256"}],"stateMutability":"nonpayable"},{"type":"function","name":"getCurrentAPY","inputs":[],"outputs":[{"name":"","type":"uint256","internalType":"uint256"}],"stateMutability":"view"},{"type":"function","name":"getPendingYield","inputs":[],"outputs":[{"name":"","type":"uint256","internalType":"uint256"}],"stateMutability":"view"},{"type":"function","name":"getProtocolName","inputs":[],"outputs":[{"name":"","type":"string","internalType":"string"}],"stateMutability":"view"},{"type":"function","name":"getShareBalance","inputs":[{"name":"account","type":"address","internalType":"address"}],"outputs":[{"name":"","type":"uint256","internalType":"uint256"}],"stateMutability":"view"},{"type":"function","name":"getTotalValue","inputs":[],"outputs":[{"name":"","type":"uint256","internalType":"uint256"}],"stateMutability":"view"},{"type":"function","name":"lastUpdateTime","inputs":[],"outputs":[{"name":"","type":"uint256","internalType":"uint256"}],"stateMutability":"view"},{"type":"function","name":"owner","inputs":[],"outputs":[{"name":"","type":"address","internalType":"address"}],"stateMutability":"view"},{"type":"function","name":"protocolName","inputs":[],"outputs":[{"name":"","type":"string","internalType":"string"}],"stateMutability":"view"},{"type":"function","name":"setAIOptimizer","inputs":[{"name":"_aiOptimizer","type":"address","internalType":"address"}],"outputs":[],"stateMutability":"nonpayable"},{"type":"function","name":"setAPY","inputs":[{"name":"newAPY","type":"uint256","internalType":"uint256"}],"outputs":[],"stateMutability":"nonpayable"},{"type":"function","name":"shares","inputs":[{"name":"","type":"address","internalType":"address"}],"outputs":[{"name":"","type":"uint256","internalType":"uint256"}],"stateMutability":"view"},{"type":"function","name":"simulatedAPY","inputs":[],"outputs":[{"name":"","type":"uint256","internalType":"uint256"}],"stateMutability":"view"},{"type":"function","name":"switchProtocol","inputs":[{"name":"newProtocol","type":"string","internalType":"string"},{"name":"newAPY","type":"uint256","internalType":"uint256"}],"outputs":[],"stateMutability":"nonpayable"},{"type":"function","name":"token","inputs":[],"outputs":[{"name":"","type":"address","internalType":"contract IERC20"}],"stateMutability":"view"},{"type":"function","name":"totalDeposits","inputs":[],"outputs":[{"name":"","type":"uint256","internalType":"uint256"}],"stateMutability":"view"},{"type":"function","name":"totalShares","inputs":[],"outputs":[{"name":"","type":"uint256","internalType":"uint256"}],"stateMutability":"view"},{"type":"function","name":"underlyingToken","inputs":[],"outputs":[{"name":"","type":"address","internalType":"address"}],"stateMutability":"view"},{"type":"function","name":"withdraw","inputs":[{"name":"shareAmount","type":"uint256","internalType":"uint256"}],"outputs":[{"name":"","type":"uint256","internalType":"uint256"}],"stateMutability":"nonpayable"},{"type":"event","name":"APYUpdated","inputs":[{"name":"oldAPY","type":"uint256","indexed":false,"internalType":"uint256"},{"name":"newAPY","type":"uint256","indexed":false,"internalType":"uint256"}],"anonymous":false},{"type":"event","name":"Deposited","inputs":[{"name":"from","type":"address","indexed":true,"internalType":"address"},{"name":"amount","type":"uint256","indexed":false,"internalType":"uint256"},{"name":"shares","type":"uint256","indexed":false,"internalType":"uint256"}],"anonymous":false},{"type":"event","name":"ProtocolSwitched","inputs":[{"name":"oldProtocol","type":"string","indexed":false,"internalType":"string"},{"name":"newProtocol","type":"string","indexed":false,"internalType":"string"}],"anonymous":false},{"type":"event","name":"Withdrawn","inputs":[{"name":"to","type":"address","indexed":true,"internalType":"address"},{"name":"shares","type":"uint256","indexed":false,"internalType":"uint256"},{"name":"amount","type":"uint256","indexed":false,"internalType":"uint256"}],"anonymous":false}],"bytecode":{"object":"0x60a060405234801562000010575f80fd5b50604051620012e9380380620012e98339810160408190526200003391620000de565b6001600160a01b0383166200007e5760405162461bcd60e51b815260206004820152600d60248201526c24b73b30b634b2103a37b5b2b760991b604482015260640160405180910390fd5b6001600160a01b038316608052600762000099838262000260565b50600355505060018054336001600160a01b031991821681179092555f805490911690911790554260045562000328565b634e487b7160e01b5f52604160045260245ffd5b5f805f60608486031215620000f1575f80fd5b83516001600160a01b038116811462000108575f80fd5b602085810151919450906001600160401b038082111562000127575f80fd5b818701915087601f8301126200013b575f80fd5b815181811115620001505762000150620000ca565b604051601f8201601f19908116603f011681019083821181831017156200017b576200017b620000ca565b816040528281528a8684870101111562000193575f80fd5b5f93505b82841015620001b6578484018601518185018701529285019262000197565b5f868483010152809750505050505050604084015190509250925092565b600181811c90821680620001e957607f821691505b6020821081036200020857634e487b7160e01b5f52602260045260245ffd5b50919050565b601f8211156200025b575f81815260208120601f850160051c81016020861015620002365750805b601f850160051c820191505b81811015620002575782815560010162000242565b5050505b505050565b81516001600160401b038111156200027c576200027c620000ca565b62000294816200028d8454620001d4565b846200020e565b602080601f831160018114620002ca575f8415620002b25750858301515b5f19600386901b1c1916600185901b17855562000257565b5f85815260208120601f198616915b82811015620002fa57888601518255948401946001909101908401620002d9565b50858210156200031857878501515f19600388901b60f8161c191681555b5050505050600190811b01905550565b608051610f8c6200035d5f395f8181610189015281816102a70152818161056e0152818161062901526109780152610f8c5ff3fe608060405234801561000f575f80fd5b5060043610610127575f3560e01c80638da5cb5b116100a9578063c8f33c911161006e578063c8f33c911461026a578063caa648b414610273578063ce7c2ac21461027b578063e567e8691461029a578063fc0c546a146102a2575f80fd5b80638da5cb5b1461022057806391af358a14610233578063962ca4961461023c578063a02d613e14610244578063b6b55f2514610257575f80fd5b80632e1a7d4d116100ef5780632e1a7d4d146101d65780633a98ef39146101e95780636348347c146101f25780637d8820971461020557806382c440e41461020e575f80fd5b806309c8086c1461012b57806311437941146101495780631f2413ed1461017f5780632495a5991461018757806324f45e67146101c1575b5f80fd5b6101336102c9565b6040516101409190610c22565b60405180910390f35b610171610157366004610c3b565b6001600160a01b03165f9081526005602052604090205490565b604051908152602001610140565b610171610359565b7f00000000000000000000000000000000000000000000000000000000000000005b6040516001600160a01b039091168152602001610140565b6101d46101cf366004610c61565b610387565b005b6101716101e4366004610c61565b610437565b61017160065481565b6101d4610200366004610c8c565b61071b565b61017160025481565b5f546101a9906001600160a01b031681565b6001546101a9906001600160a01b031681565b61017160035481565b600354610171565b6101d4610252366004610c3b565b610861565b610171610265366004610c61565b610911565b61017160045481565b610171610af2565b610171610289366004610c3b565b60056020525f908152604090205481565b610133610b53565b6101a97f000000000000000000000000000000000000000000000000000000000000000081565b6060600780546102d890610d3b565b80601f016020809104026020016040519081016040528092919081815260200182805461030490610d3b565b801561034f5780601f106103265761010080835404028352916020019161034f565b820191905f5260205f20905b81548152906001019060200180831161033257829003601f168201915b5050505050905090565b5f80610363610af2565b90506002548111610374575f610381565b6002546103819082610d87565b91505090565b5f546001600160a01b03163314806103a957506001546001600160a01b031633145b6103ee5760405162461bcd60e51b815260206004820152601160248201527027b7363c9020a49037b83a34b6b4bd32b960791b60448201526064015b60405180910390fd5b60038054908290554260045560408051828152602081018490527f787a1fca55641ce34a438271930bbb9401df20db2b4f510d4f252227d85df43d910160405180910390a15050565b5f80821161047c5760405162461bcd60e51b81526020600482015260126024820152710536861726573206d757374206265203e20360741b60448201526064016103e5565b335f90815260056020526040902054821115806104a357506001546001600160a01b031633145b6104e55760405162461bcd60e51b8152602060048201526013602482015272496e73756666696369656e742073686172657360681b60448201526064016103e5565b5f6006546104f1610af2565b6104fb9085610da0565b6105059190610db7565b335f90815260056020526040902054909150831161054157335f908152600560205260408120805485929061053b908490610d87565b90915550505b8260065f8282546105529190610d87565b90915550506040516370a0823160e01b81523060048201525f907f00000000000000000000000000000000000000000000000000000000000000006001600160a01b0316906370a0823190602401602060405180830381865afa1580156105bb573d5f803e3d5ffd5b505050506040513d601f19601f820116820180604052508101906105df9190610dd6565b9050808211156105ed578091505b81600254116105fc575f61060a565b8160025461060a9190610d87565b60025560405163a9059cbb60e01b8152336004820152602481018390527f00000000000000000000000000000000000000000000000000000000000000006001600160a01b03169063a9059cbb906044016020604051808303815f875af1158015610677573d5f803e3d5ffd5b505050506040513d601f19601f8201168201806040525081019061069b9190610ded565b6106d95760405162461bcd60e51b815260206004820152600f60248201526e151c985b9cd9995c8819985a5b1959608a1b60448201526064016103e5565b604080518581526020810184905233917f92ccf450a286a957af52509bc1c9939d1a6a481783e142e41e2499f0bb66ebc6910160405180910390a25092915050565b5f546001600160a01b031633148061073d57506001546001600160a01b031633145b61077d5760405162461bcd60e51b815260206004820152601160248201527027b7363c9020a49037b83a34b6b4bd32b960791b60448201526064016103e5565b5f6007805461078b90610d3b565b80601f01602080910402602001604051908101604052809291908181526020018280546107b790610d3b565b80156108025780601f106107d957610100808354040283529160200191610802565b820191905f5260205f20905b8154815290600101906020018083116107e557829003601f168201915b5050505050905082600790816108189190610e5a565b506003829055426004556040517f46939fab97b28a0940e889cd82565f6192401259bf55baa3c4209e36039e0768906108549083908690610f16565b60405180910390a1505050565b6001546001600160a01b031633146108a85760405162461bcd60e51b815260206004820152600a60248201526927b7363c9037bbb732b960b11b60448201526064016103e5565b6001600160a01b0381166108f05760405162461bcd60e51b815260206004820152600f60248201526e496e76616c6964206164647265737360881b60448201526064016103e5565b5f80546001600160a01b0319166001600160a01b0392909216919091179055565b5f8082116109565760405162461bcd60e51b81526020600482015260126024820152710416d6f756e74206d757374206265203e20360741b60448201526064016103e5565b6040516323b872dd60e01b8152336004820152306024820152604481018390527f00000000000000000000000000000000000000000000000000000000000000006001600160a01b0316906323b872dd906064016020604051808303815f875af11580156109c6573d5f803e3d5ffd5b505050506040513d601f19601f820116820180604052508101906109ea9190610ded565b610a285760405162461bcd60e51b815260206004820152600f60248201526e151c985b9cd9995c8819985a5b1959608a1b60448201526064016103e5565b600654829015801590610a3c57505f600254115b15610a5e57600254600654610a519085610da0565b610a5b9190610db7565b90505b335f9081526005602052604081208054839290610a7c908490610f43565b925050819055508060065f828254610a949190610f43565b925050819055508260025f828254610aac9190610f43565b9091555050604080518481526020810183905233917f73a19dd210f1a7f902193214c0ee91dd35ee5b4d920cba8d519eca65a7b488ca910160405180910390a292915050565b5f8060045442610b029190610d87565b90506301e133805f610b1682612710610da0565b83600354600254610b279190610da0565b610b319190610da0565b610b3b9190610db7565b905080600254610b4b9190610f43565b935050505090565b60078054610b6090610d3b565b80601f0160208091040260200160405190810160405280929190818152602001828054610b8c90610d3b565b8015610bd75780601f10610bae57610100808354040283529160200191610bd7565b820191905f5260205f20905b815481529060010190602001808311610bba57829003601f168201915b505050505081565b5f81518084525f5b81811015610c0357602081850181015186830182015201610be7565b505f602082860101526020601f19601f83011685010191505092915050565b602081525f610c346020830184610bdf565b9392505050565b5f60208284031215610c4b575f80fd5b81356001600160a01b0381168114610c34575f80fd5b5f60208284031215610c71575f80fd5b5035919050565b634e487b7160e01b5f52604160045260245ffd5b5f8060408385031215610c9d575f80fd5b823567ffffffffffffffff80821115610cb4575f80fd5b818501915085601f830112610cc7575f80fd5b813581811115610cd957610cd9610c78565b604051601f8201601f19908116603f01168101908382118183101715610d0157610d01610c78565b81604052828152886020848701011115610d19575f80fd5b826020860160208301375f602093820184015298969091013596505050505050565b600181811c90821680610d4f57607f821691505b602082108103610d6d57634e487b7160e01b5f52602260045260245ffd5b50919050565b634e487b7160e01b5f52601160045260245ffd5b81810381811115610d9a57610d9a610d73565b92915050565b8082028115828204841417610d9a57610d9a610d73565b5f82610dd157634e487b7160e01b5f52601260045260245ffd5b500490565b5f60208284031215610de6575f80fd5b5051919050565b5f60208284031215610dfd575f80fd5b81518015158114610c34575f80fd5b601f821115610e55575f81815260208120601f850160051c81016020861015610e325750805b601f850160051c820191505b81811015610e5157828155600101610e3e565b5050505b505050565b815167ffffffffffffffff811115610e7457610e74610c78565b610e8881610e828454610d3b565b84610e0c565b602080601f831160018114610ebb575f8415610ea45750858301515b5f19600386901b1c1916600185901b178555610e51565b5f85815260208120601f198616915b82811015610ee957888601518255948401946001909101908401610eca565b5085821015610f0657878501515f19600388901b60f8161c191681555b5050505050600190811b01905550565b604081525f610f286040830185610bdf565b8281036020840152610f3a8185610bdf565b95945050505050565b80820180821115610d9a57610d9a610d7356fea2646970667358221220e9cb8867fda1e3efab89d519770283fc552e07c436e554fec2800f154970fa1e64736f6c63430008140033","linkReferences":{}},"methodIdentifiers":{"aiOptimizer()":"82c440e4","deposit(uint256)":"b6b55f25","getCurrentAPY()":"962ca496","getPendingYield()":"1f2413ed","getProtocolName()":"09c8086c","getShareBalance(address)":"11437941","getTotalValue()":"caa648b4","lastUpdateTime()":"c8f33c91","owner()":"8da5cb5b","protocolName()":"e567e869","setAIOptimizer(address)":"a02d613e","setAPY(uint256)":"24f45e67","shares(address)":"ce7c2ac2","simulatedAPY()":"91af358a","switchProtocol(string,uint256)":"6348347c","token()":"fc0c546a","totalDeposits()":"7d882097","totalShares()":"3a98ef39","underlyingToken()":"2495a599","withdraw(uint256)":"2e1a7d4d"},"id":19}