{"abi":[{"type":"constructor","inputs":[{"name":"_usdc","type":"address","internalType":"address"},{"name":"_depositAmount","type":"uint256","internalType":"uint256"},{"name":"_maxParticipants","type":"uint256","internalType":"uint256"},{"name":"_cycleDuration","type":"uint256","internalType":"uint256"},{"name":"_collateralMultiplier","type":"uint256","internalType":"uint256"}],"stateMutability":"nonpayable"},{"type":"function","name":"aiOptimizer","inputs":[],"outputs":[{"name":"","type":"address","internalType":"address"}],"stateMutability":"view"},{"type":"function","name":"config","inputs":[],"outputs":[{"name":"depositAmount","type":"uint256","internalType":"uint256"},{"name":"maxParticipants","type":"uint256","internalType":"uint256"},{"name":"cycleDuration","type":"uint256","internalType":"uint256"},{"name":"collateralMultiplier","type":"uint256","internalType":"uint256"}],"stateMutability":"view"},{"type":"function","name":"currentCycle","inputs":[],"outputs":[{"name":"","type":"uint256","internalType":"uint256"}],"stateMutability":"view"},{"type":"function","name":"cycleWinners","inputs":[{"name":"","type":"uint256","internalType":"uint256"}],"outputs":[{"name":"","type":"address","internalType":"address"}],"stateMutability":"view"},{"type":"function","name":"getCurrentYield","inputs":[],"outputs":[{"name":"","type":"uint256","internalType":"uint256"}],"stateMutability":"view"},{"type":"function","name":"getEligibleWinners","inputs":[],"outputs":[{"name":"","type":"address[]","internalType":"address[]"}],"stateMutability":"view"},{"type":"function","name":"getParticipantCount","inputs":[],"outputs":[{"name":"","type":"uint256","internalType":"uint256"}],"stateMutability":"view"},{"type":"function","name":"getPoolInfo","inputs":[],"outputs":[{"name":"depositAmount","type":"uint256","internalType":"uint256"},{"name":"maxParticipants","type":"uint256","internalType":"uint256"},{"name":"currentParticipants","type":"uint256","internalType":"uint256"},{"name":"cycle","type":"uint256","internalType":"uint256"},{"name":"started","type":"bool","internalType":"bool"},{"name":"active","type":"bool","internalType":"bool"},{"name":"totalFunds","type":"uint256","internalType":"uint256"},{"name":"yield_","type":"uint256","internalType":"uint256"}],"stateMutability":"view"},{"type":"function","name":"getRequiredCollateral","inputs":[],"outputs":[{"name":"","type":"uint256","internalType":"uint256"}],"stateMutability":"view"},{"type":"function","name":"getTotalCollateral","inputs":[],"outputs":[{"name":"","type":"uint256","internalType":"uint256"}],"stateMutability":"view"},{"type":"function","name":"hasDepositedThisCycle","inputs":[{"name":"participant","type":"address","internalType":"address"}],"outputs":[{"name":"","type":"bool","internalType":"bool"}],"stateMutability":"view"},{"type":"function","name":"hasMissedPayment","inputs":[{"name":"participant","type":"address","internalType":"address"}],"outputs":[{"name":"","type":"bool","internalType":"bool"}],"stateMutability":"view"},{"type":"function","name":"isCycleComplete","inputs":[],"outputs":[{"name":"","type":"bool","internalType":"bool"}],"stateMutability":"view"},{"type":"function","name":"isPoolActive","inputs":[],"outputs":[{"name":"","type":"bool","internalType":"bool"}],"stateMutability":"view"},{"type":"function","name":"isPoolFull","inputs":[],"outputs":[{"name":"","type":"bool","internalType":"bool"}],"stateMutability":"view"},{"type":"function","name":"isPoolStarted","inputs":[],"outputs":[{"name":"","type":"bool","internalType":"bool"}],"stateMutability":"view"},{"type":"function","name":"joinPool","inputs":[],"outputs":[],"stateMutability":"nonpayable"},{"type":"function","name":"lastWinner","inputs":[],"outputs":[{"name":"","type":"address","internalType":"address"}],"stateMutability":"view"},{"type":"function","name":"makeDeposit","inputs":[],"outputs":[],"stateMutability":"nonpayable"},{"type":"function","name":"owner","inputs":[],"outputs":[{"name":"","type":"address","internalType":"address"}],"stateMutability":"view"},{"type":"function","name":"participantList","inputs":[{"name":"","type":"uint256","internalType":"uint256"}],"outputs":[{"name":"","type":"address","internalType":"address"}],"stateMutability":"view"},{"type":"function","name":"participants","inputs":[{"name":"","type":"address","internalType":"address"}],"outputs":[{"name":"addr","type":"address","internalType":"address"},{"name":"collateralAmount","type":"uint256","internalType":"uint256"},{"name":"totalDeposited","type":"uint256","internalType":"uint256"},{"name":"missedPayments","type":"uint256","internalType":"uint256"},{"name":"hasReceivedPayout","type":"bool","internalType":"bool"},{"name":"isActive","type":"bool","internalType":"bool"},{"name":"joinedAt","type":"uint256","internalType":"uint256"}],"stateMutability":"view"},{"type":"function","name":"poolStartTime","inputs":[],"outputs":[{"name":"","type":"uint256","internalType":"uint256"}],"stateMutability":"view"},{"type":"function","name":"selectWinner","inputs":[],"outputs":[],"stateMutability":"nonpayable"},{"type":"function","name":"setAIOptimizer","inputs":[{"name":"_aiOptimizer","type":"address","internalType":"address"}],"outputs":[],"stateMutability":"nonpayable"},{"type":"function","name":"slashCollateral","inputs":[{"name":"participant","type":"address","internalType":"address"}],"outputs":[],"stateMutability":"nonpayable"},{"type":"function","name":"startPool","inputs":[],"outputs":[],"stateMutability":"nonpayable"},{"type":"function","name":"totalPoolFunds","inputs":[],"outputs":[{"name":"","type":"uint256","internalType":"uint256"}],"stateMutability":"view"},{"type":"function","name":"totalYieldEarned","inputs":[],"outputs":[{"name":"","type":"uint256","internalType":"uint256"}],"stateMutability":"view"},{"type":"function","name":"transferOwnership","inputs":[{"name":"newOwner","type":"address","internalType":"address"}],"outputs":[],"stateMutability":"nonpayable"},{"type":"function","name":"updateYieldStrategy","inputs":[{"name":"newStrategy","type":"address","internalType":"address"}],"outputs":[],"stateMutability":"nonpayable"},{"type":"function","name":"usdc","inputs":[],"outputs":[{"name":"","type":"address","internalType":"contract IERC20"}],"stateMutability":"view"},{"type":"function","name":"yieldStrategy","inputs":[],"outputs":[{"name":"","type":"address","internalType":"contract IYieldStrategy"}],"stateMutability":"view"},{"type":"event","name":"CollateralReturned","inputs":[{"name":"participant","type":"address","indexed":true,"internalType":"address"},{"name":"amount","type":"uint256","indexed":false,"internalType":"uint256"},{"name":"yieldBonus","type":"uint256","indexed":false,"internalType":"uint256"}],"anonymous":false},{"type":"event","name":"CollateralSlashed","inputs":[{"name":"participant","type":"address","indexed":true,"internalType":"address"},{"name":"amount","type":"uint256","indexed":false,"internalType":"uint256"},{"name":"reason","type":"string","indexed":false,"internalType":"string"}],"anonymous":false},{"type":"event","name":"DepositMade","inputs":[{"name":"participant","type":"address","indexed":true,"internalType":"address"},{"name":"amount","type":"uint256","indexed":false,"internalType":"uint256"},{"name":"cycle","type":"uint256","indexed":false,"internalType":"uint256"}],"anonymous":false},{"type":"event","name":"ParticipantJoined","inputs":[{"name":"participant","type":"address","indexed":true,"internalType":"address"},{"name":"collateral","type":"uint256","indexed":false,"internalType":"uint256"}],"anonymous":false},{"type":"event","name":"PayoutDistributed","inputs":[{"name":"winner","type":"address","indexed":true,"internalType":"address"},{"name":"amount","type":"uint256","indexed":false,"internalType":"uint256"},{"name":"cycle","type":"uint256","indexed":false,"internalType":"uint256"}],"anonymous":false},{"type":"event","name":"PoolEnded","inputs":[{"name":"totalYield","type":"uint256","indexed":false,"internalType":"uint256"}],"anonymous":false},{"type":"event","name":"PoolStarted","inputs":[{"name":"startTime","type":"uint256","indexed":false,"internalType":"uint256"}],"anonymous":false},{"type":"event","name":"YieldStrategyUpdated","inputs":[{"name":"oldStrategy","type":"address","indexed":true,"internalType":"address"},{"name":"newStrategy","type":"address","indexed":true,"internalType":"address"}],"anonymous":false}],"bytecode":{"object":"0x60a060405234801562000010575f80fd5b506040516200247d3803806200247d8339810160408190526200003391620001ba565b6001600160a01b0385166200008f5760405162461bcd60e51b815260206004820152601460248201527f496e76616c69642055534443206164647265737300000000000000000000000060448201526064015b60405180910390fd5b5f8411620000e05760405162461bcd60e51b815260206004820152601360248201527f4465706f736974206d757374206265203e203000000000000000000000000000604482015260640162000086565b6002831015620001335760405162461bcd60e51b815260206004820152601c60248201527f4e656564206174206c656173742032207061727469636970616e747300000000604482015260640162000086565b6001600160a01b039094166080908152600d8054600e80546001600160a01b031916339081179091556040805194850181528785526020850187905284018590526060909301879052600195865560029490945560039290925560049490945560ff1963010000009094029390931662ffff01600160b81b0319909116171790556200020c565b5f805f805f60a08688031215620001cf575f80fd5b85516001600160a01b0381168114620001e6575f80fd5b602087015160408801516060890151608090990151929a91995097965090945092505050565b6080516122206200025d5f395f818161032e015281816107e001528181610a9701528181610bd3015281816110c1015281816118e80152818161198701528181611c710152611ef801526122205ff3fe608060405234801561000f575f80fd5b50600436106101f2575f3560e01c80638371e6b411610114578063bab2f552116100a9578063e68b775711610079578063e68b7757146104db578063f1139d0f146104ee578063f2fde38b146104f7578063fa08c9081461050a578063fe18818414610512575f80fd5b8063bab2f552146104b4578063cc009679146104bd578063d6eb5910146104c6578063df868ed3146104ce575f80fd5b8063a02d613e116100e4578063a02d613e1461047e578063a71a99b214610491578063ad605729146104a4578063b91503a6146104ac575f80fd5b80638371e6b4146104415780638da5cb5b1461044957806392c59082146104635780639d1fef811461046b575f80fd5b806340732c891161018a57806360246c881161015a57806360246c881461039e57806379502c55146103e55780638065cce11461041b57806382c440e41461042e575f80fd5b806340732c891461035057806348bb357e146103585780635ab20249146103805780635f96dc1114610395575f80fd5b806313f14fee116101c557806313f14fee146102f757806333a99e041461030957806334c15f58146103135780633e413bee14610329575f80fd5b8063093c87f3146101f657806309e69ede1461021d5780630e6fdaa1146102b957806311e776de146102e4575b5f80fd5b600d5461020890610100900460ff1681565b60405190151581526020015b60405180910390f35b61027661022b36600461200c565b600560208190525f91825260409091208054600182015460028301546003840154600485015494909501546001600160a01b03909316949193909260ff808316926101009004169087565b604080516001600160a01b039098168852602088019690965294860193909352606085019190915215156080840152151560a083015260c082015260e001610214565b6102cc6102c7366004612039565b610525565b6040516001600160a01b039091168152602001610214565b6102086102f236600461200c565b61054d565b5f546102cc906001600160a01b031681565b610311610588565b005b61031b61094e565b604051908152602001610214565b6102cc7f000000000000000000000000000000000000000000000000000000000000000081565b61031161098b565b6102cc610366366004612039565b600c6020525f90815260409020546001600160a01b031681565b610388610cff565b6040516102149190612050565b61031b60085481565b6103a6610f2b565b60408051988952602089019790975295870194909452606086019290925215156080850152151560a084015260c083015260e082015261010001610214565b6001546002546003546004546103fb9392919084565b604080519485526020850193909352918301526060820152608001610214565b600d546102089062010000900460ff1681565b600e546102cc906001600160a01b031681565b610311610f82565b600d546102cc90630100000090046001600160a01b031681565b6102086112be565b61031161047936600461200c565b6112e4565b61031161048c36600461200c565b611546565b61020861049f36600461200c565b6115e1565b60065461031b565b61031b611619565b61031b60075481565b61031b600a5481565b61031b6116da565b600d546102089060ff1681565b6103116104e936600461200c565b611749565b61031b60095481565b61031161050536600461200c565b611aa2565b610311611b47565b600b546102cc906001600160a01b031681565b60068181548110610534575f80fd5b5f918252602090912001546001600160a01b0316905081565b5f8060015f015460075461056191906120b0565b6001600160a01b039093165f90815260056020526040902060020154929092101592915050565b600d54630100000090046001600160a01b031633146105c25760405162461bcd60e51b81526004016105b9906120c7565b60405180910390fd5b600d5460ff1680156105dc5750600d5462010000900460ff165b6105f85760405162461bcd60e51b81526004016105b9906120eb565b6106006112be565b6106415760405162461bcd60e51b81526020600482015260126024820152714379636c65206e6f7420636f6d706c65746560701b60448201526064016105b9565b5f61064a610cff565b90505f8151116106925760405162461bcd60e51b81526020600482015260136024820152724e6f20656c696769626c652077696e6e65727360681b60448201526064016105b9565b5f815142446007546040516020016106bd939291909283526020830191909152604082015260600190565b604051602081830303815290604052805190602001205f1c6106df9190612128565b90505f8282815181106106f4576106f461213b565b602002602001015190505f600180015460015f015461071391906120b0565b90505f6001800154610723611619565b61072d919061214f565b90505f61073a8284612162565b5f549091506001600160a01b0316156107ba575f54604051632e1a7d4d60e01b8152600481018390526001600160a01b0390911690632e1a7d4d906024016020604051808303815f875af1158015610794573d5f803e3d5ffd5b505050506040513d601f19601f820116820180604052508101906107b89190612175565b505b60405163a9059cbb60e01b81526001600160a01b038581166004830152602482018390527f0000000000000000000000000000000000000000000000000000000000000000169063a9059cbb906044016020604051808303815f875af1158015610826573d5f803e3d5ffd5b505050506040513d601f19601f8201168201806040525081019061084a919061218c565b61088f5760405162461bcd60e51b815260206004820152601660248201527514185e5bdd5d081d1c985b9cd9995c8819985a5b195960521b60448201526064016105b9565b6001600160a01b0384165f818152600560209081526040808320600401805460ff19166001179055600780548452600c83529281902080546001600160a01b03199081168617909155600b80549091168517905591548251858152918201527f509dbfab2c074202d576ce93478af7019ee2a29bdd433154579904b0876a0840910160405180910390a2600254600754106109315761092c611d87565b610946565b60078054905f610940836121ab565b91905055505b505050505050565b6004546002545f91606491610965906001906121c3565b60015461097291906120b0565b61097c91906120b0565b610986919061214f565b905090565b600d5460ff1680156109a55750600d5462010000900460ff165b6109c15760405162461bcd60e51b81526004016105b9906120eb565b335f90815260056020526040902060040154610100900460ff16610a1b5760405162461bcd60e51b8152602060048201526011602482015270139bdd0818481c185c9d1a58da5c185b9d607a1b60448201526064016105b9565b610a243361054d565b15610a715760405162461bcd60e51b815260206004820152601c60248201527f416c7265616479206465706f73697465642074686973206379636c650000000060448201526064016105b9565b6001546040516323b872dd60e01b815233600482015230602482015260448101919091527f00000000000000000000000000000000000000000000000000000000000000006001600160a01b0316906323b872dd906064016020604051808303815f875af1158015610ae5573d5f803e3d5ffd5b505050506040513d601f19601f82011682018060405250810190610b09919061218c565b610b555760405162461bcd60e51b815260206004820152601760248201527f4465706f736974207472616e73666572206661696c656400000000000000000060448201526064016105b9565b600154335f9081526005602052604081206002018054909190610b79908490612162565b9091555050600154600980545f90610b92908490612162565b90915550505f546001600160a01b031615610cb6575f5460015460405163095ea7b360e01b81526001600160a01b03928316600482015260248101919091527f00000000000000000000000000000000000000000000000000000000000000009091169063095ea7b3906044016020604051808303815f875af1158015610c1b573d5f803e3d5ffd5b505050506040513d601f19601f82011682018060405250810190610c3f919061218c565b505f5460015460405163b6b55f2560e01b81526001600160a01b039092169163b6b55f2591610c749160040190815260200190565b6020604051808303815f875af1158015610c90573d5f803e3d5ffd5b505050506040513d601f19601f82011682018060405250810190610cb49190612175565b505b60015460075460405133927f0b05f0d1cd0819f155b8a61f60baf7767c1ee49d04aeaab701df236140eb93f992610cf592918252602082015260400190565b60405180910390a2565b60605f805b600654811015610dc25760055f60068381548110610d2457610d2461213b565b5f9182526020808320909101546001600160a01b0316835282019290925260400190206004015460ff610100909104168015610d9d575060055f60068381548110610d7157610d7161213b565b5f9182526020808320909101546001600160a01b0316835282019290925260400190206004015460ff16155b15610db05781610dac816121ab565b9250505b80610dba816121ab565b915050610d04565b505f8167ffffffffffffffff811115610ddd57610ddd6121d6565b604051908082528060200260200182016040528015610e06578160200160208202803683370190505b5090505f805b600654811015610f225760055f60068381548110610e2c57610e2c61213b565b5f9182526020808320909101546001600160a01b0316835282019290925260400190206004015460ff610100909104168015610ea5575060055f60068381548110610e7957610e7961213b565b5f9182526020808320909101546001600160a01b0316835282019290925260400190206004015460ff16155b15610f105760068181548110610ebd57610ebd61213b565b905f5260205f20015f9054906101000a90046001600160a01b0316838381518110610eea57610eea61213b565b6001600160a01b039092166020928302919091019091015281610f0c816121ab565b9250505b80610f1a816121ab565b915050610e0c565b50909392505050565b600154600254600654600754600d546009545f958695869586958695869586958695909490939092909160ff6201000083048116921690610f6a611619565b969f959e50939c50919a509850965094509092509050565b600d5462010000900460ff1615610fd25760405162461bcd60e51b8152602060048201526014602482015273141bdbdb08185b1c9958591e481cdd185c9d195960621b60448201526064016105b9565b600d5460ff16610ff45760405162461bcd60e51b81526004016105b9906120eb565b600d54610100900460ff161561103b5760405162461bcd60e51b815260206004820152600c60248201526b141bdbdb081a5cc8199d5b1b60a21b60448201526064016105b9565b335f90815260056020526040902060040154610100900460ff16156110935760405162461bcd60e51b815260206004820152600e60248201526d105b1c9958591e481a9bda5b995960921b60448201526064016105b9565b5f61109c61094e565b6040516323b872dd60e01b8152336004820152306024820152604481018290529091507f00000000000000000000000000000000000000000000000000000000000000006001600160a01b0316906323b872dd906064016020604051808303815f875af115801561110f573d5f803e3d5ffd5b505050506040513d601f19601f82011682018060405250810190611133919061218c565b61117f5760405162461bcd60e51b815260206004820152601a60248201527f436f6c6c61746572616c207472616e73666572206661696c656400000000000060448201526064016105b9565b6040805160e0810182523380825260208083018581525f8486018181526060860182815260808701838152600160a089018181524260c08b019081528987526005988990529a862099518a546001600160a01b03919091166001600160a01b0319918216178b5596518a83015593516002808b0191909155925160038a01559051600489018054945115156101000261ff00199215159290921661ffff19909516949094171790925596519590930194909455600680549283018155938490527ff652222313e28459528d920b65115c16c04f3efc82aaedc97be59f3f377c0d3f90910180549091169091179055905490541061128657600d805461ff0019166101001790555b60405181815233907f8123641a38ad3476ac345fc38496fa9edc26a110698c8c0c9fffc30f546f918c9060200160405180910390a250565b6003546007545f916112cf916120b0565b6008546112dc9190612162565b421015905090565b600d54630100000090046001600160a01b031633146113155760405162461bcd60e51b81526004016105b9906120c7565b600d5460ff16801561132f5750600d5462010000900460ff165b61134b5760405162461bcd60e51b81526004016105b9906120eb565b6001600160a01b0381165f90815260056020526040902060040154610100900460ff166113b35760405162461bcd60e51b8152602060048201526016602482015275139bdd081858dd1a5d99481c185c9d1a58da5c185b9d60521b60448201526064016105b9565b6113bc816115e1565b6113fc5760405162461bcd60e51b8152602060048201526011602482015270139bc81b5a5cdcd959081c185e5b595b9d607a1b60448201526064016105b9565b600180546001600160a01b0383165f9081526005602052604090209091015481116114fd576001600160a01b0382165f908152600560205260408120600101805483929061144b9084906121c3565b90915550506001600160a01b0382165f908152600560205260408120600301805491611476836121ab565b91905055508060095f82825461148c9190612162565b92505081905550816001600160a01b03167f403feb2cd85cc25c910fe59289105b583f08fe9e4335ebbb08c1851f47ff2d34826040516114f4918152604060208201819052600e908201526d135a5cdcd959081c185e5b595b9d60921b606082015260800190565b60405180910390a25b6001600160a01b0382165f908152600560205260408120600101549003611542576001600160a01b0382165f908152600560205260409020600401805461ff00191690555b5050565b600d54630100000090046001600160a01b031633146115775760405162461bcd60e51b81526004016105b9906120c7565b6001600160a01b0381166115bf5760405162461bcd60e51b815260206004820152600f60248201526e496e76616c6964206164647265737360881b60448201526064016105b9565b600e80546001600160a01b0319166001600160a01b0392909216919091179055565b5f6115eb8261054d565b158015611613575060035460075461160391906120b0565b6008546116109190612162565b42115b92915050565b5f80546001600160a01b031661162e57505f90565b5f805f9054906101000a90046001600160a01b03166001600160a01b031663caa648b46040518163ffffffff1660e01b8152600401602060405180830381865afa15801561167e573d5f803e3d5ffd5b505050506040513d601f19601f820116820180604052508101906116a29190612175565b90505f6009546116b06116da565b6116ba9190612162565b90508082116116c9575f6116d3565b6116d381836121c3565b9250505090565b5f80805b6006548110156117435760055f600683815481106116fe576116fe61213b565b5f9182526020808320909101546001600160a01b0316835282019290925260400190206001015461172f9083612162565b91508061173b816121ab565b9150506116de565b50919050565b600e546001600160a01b03163314806117735750600d54630100000090046001600160a01b031633145b6117b35760405162461bcd60e51b815260206004820152601160248201527027b7363c9020a49037b83a34b6b4bd32b960791b60448201526064016105b9565b5f546001600160a01b031680156118af575f805f9054906101000a90046001600160a01b03166001600160a01b031663caa648b46040518163ffffffff1660e01b8152600401602060405180830381865afa158015611814573d5f803e3d5ffd5b505050506040513d601f19601f820116820180604052508101906118389190612175565b905080156118ad575f54604051632e1a7d4d60e01b8152600481018390526001600160a01b0390911690632e1a7d4d906024016020604051808303815f875af1158015611887573d5f803e3d5ffd5b505050506040513d601f19601f820116820180604052508101906118ab9190612175565b505b505b5f80546001600160a01b0319166001600160a01b03841690811790915515611a5e576040516370a0823160e01b81523060048201525f907f00000000000000000000000000000000000000000000000000000000000000006001600160a01b0316906370a0823190602401602060405180830381865afa158015611935573d5f803e3d5ffd5b505050506040513d601f19601f820116820180604052508101906119599190612175565b90508015611a5c5760405163095ea7b360e01b81526001600160a01b038481166004830152602482018390527f0000000000000000000000000000000000000000000000000000000000000000169063095ea7b3906044016020604051808303815f875af11580156119cd573d5f803e3d5ffd5b505050506040513d601f19601f820116820180604052508101906119f1919061218c565b5060405163b6b55f2560e01b8152600481018290526001600160a01b0384169063b6b55f25906024016020604051808303815f875af1158015611a36573d5f803e3d5ffd5b505050506040513d601f19601f82011682018060405250810190611a5a9190612175565b505b505b816001600160a01b0316816001600160a01b03167fbffd2f20a06ca0304329080309bdd314339b2a5afe9927f8b3100220b661c94760405160405180910390a35050565b600d54630100000090046001600160a01b03163314611ad35760405162461bcd60e51b81526004016105b9906120c7565b6001600160a01b038116611b1b5760405162461bcd60e51b815260206004820152600f60248201526e496e76616c6964206164647265737360881b60448201526064016105b9565b600d80546001600160a01b039092166301000000026301000000600160b81b0319909216919091179055565b600d54630100000090046001600160a01b03163314611b785760405162461bcd60e51b81526004016105b9906120c7565b600d54610100900460ff16611bc35760405162461bcd60e51b8152602060048201526011602482015270141bdbdb081b9bdd08199d5b1b081e595d607a1b60448201526064016105b9565b600d5462010000900460ff1615611c135760405162461bcd60e51b8152602060048201526014602482015273141bdbdb08185b1c9958591e481cdd185c9d195960621b60448201526064016105b9565b600d805462ff00001916620100001790554260085560016007555f546001600160a01b031615611d4a575f611c466116da565b5f5460405163095ea7b360e01b81526001600160a01b039182166004820152602481018390529192507f0000000000000000000000000000000000000000000000000000000000000000169063095ea7b3906044016020604051808303815f875af1158015611cb7573d5f803e3d5ffd5b505050506040513d601f19601f82011682018060405250810190611cdb919061218c565b505f5460405163b6b55f2560e01b8152600481018390526001600160a01b039091169063b6b55f25906024016020604051808303815f875af1158015611d23573d5f803e3d5ffd5b505050506040513d601f19601f82011682018060405250810190611d479190612175565b50505b7f510ad7fdc6893c3992445eb80eeade3af54768c0d8dc2cc8fc57b1c9afa1491d600854604051611d7d91815260200190565b60405180910390a1565b600d805460ff19169055611d99611619565b600a8190556002545f91611dad919061214f565b90505f5b600654811015611fcd575f60068281548110611dcf57611dcf61213b565b5f9182526020808320909101546001600160a01b0316808352600590915260409091206004015490915060ff610100909104168015611e2757506001600160a01b0381165f9081526005602052604090206001015415155b15611fba576001600160a01b0381165f90815260056020526040812060010154611e52908590612162565b5f549091506001600160a01b031615611ed2575f54604051632e1a7d4d60e01b8152600481018390526001600160a01b0390911690632e1a7d4d906024016020604051808303815f875af1158015611eac573d5f803e3d5ffd5b505050506040513d601f19601f82011682018060405250810190611ed09190612175565b505b60405163a9059cbb60e01b81526001600160a01b038381166004830152602482018390527f0000000000000000000000000000000000000000000000000000000000000000169063a9059cbb906044016020604051808303815f875af1158015611f3e573d5f803e3d5ffd5b505050506040513d601f19601f82011682018060405250810190611f62919061218c565b506001600160a01b0382165f818152600560209081526040918290206001015482519081529081018790527f6317b02bf4f9d77ff9f12b927d1b0bb5831458350ded642ec3d9fc47c5451f9d910160405180910390a2505b5080611fc5816121ab565b915050611db1565b507f7ec14564eed3e841911f7412fd555aa022b64c2b1ae4b3da14fcacc8c0c4bf71600a5460405161200191815260200190565b60405180910390a150565b5f6020828403121561201c575f80fd5b81356001600160a01b0381168114612032575f80fd5b9392505050565b5f60208284031215612049575f80fd5b5035919050565b602080825282518282018190525f9190848201906040850190845b818110156120905783516001600160a01b03168352928401929184019160010161206b565b50909695505050505050565b634e487b7160e01b5f52601160045260245ffd5b80820281158282048414176116135761161361209c565b6020808252600a908201526927b7363c9037bbb732b960b11b604082015260600190565b6020808252600f908201526e506f6f6c206e6f742061637469766560881b604082015260600190565b634e487b7160e01b5f52601260045260245ffd5b5f8261213657612136612114565b500690565b634e487b7160e01b5f52603260045260245ffd5b5f8261215d5761215d612114565b500490565b808201808211156116135761161361209c565b5f60208284031215612185575f80fd5b5051919050565b5f6020828403121561219c575f80fd5b81518015158114612032575f80fd5b5f600182016121bc576121bc61209c565b5060010190565b818103818111156116135761161361209c565b634e487b7160e01b5f52604160045260245ffdfea2646970667358221220ba2fda81e1e7d50d87c541fc1ad38d1408b44e40e270f24eceae5a1191349f8964736f6c63430008140033","linkReferences":{}},"methodIdentifiers":{"aiOptimizer()":"82c440e4","config()":"79502c55","currentCycle()":"bab2f552","cycleWinners(uint256)":"48bb357e","getCurrentYield()":"b91503a6","getEligibleWinners()":"5ab20249","getParticipantCount()":"ad605729","getPoolInfo()":"60246c88","getRequiredCollateral()":"34c15f58","getTotalCollateral()":"d6eb5910","hasDepositedThisCycle(address)":"11e776de","hasMissedPayment(address)":"a71a99b2","isCycleComplete()":"92c59082","isPoolActive()":"df868ed3","isPoolFull()":"093c87f3","isPoolStarted()":"8065cce1","joinPool()":"8371e6b4","lastWinner()":"fe188184","makeDeposit()":"40732c89","owner()":"8da5cb5b","participantList(uint256)":"0e6fdaa1","participants(address)":"09e69ede","poolStartTime()":"5f96dc11","selectWinner()":"33a99e04","setAIOptimizer(address)":"a02d613e","slashCollateral(address)":"9d1fef81","startPool()":"fa08c908","totalPoolFunds()":"f1139d0f","totalYieldEarned()":"cc009679","transferOwnership(address)":"f2fde38b","updateYieldStrategy(address)":"e68b7757","usdc()":"3e413bee","yieldStrategy()":"13f14fee"},"id":21}