{"abi":[{"type":"constructor","inputs":[{"name":"_usdc","type":"address","internalType":"address"}],"stateMutability":"nonpayable"},{"type":"function","name":"addTemplate","inputs":[{"name":"name","type":"string","internalType":"string"},{"name":"depositAmount","type":"uint256","internalType":"uint256"},{"name":"maxParticipants","type":"uint256","internalType":"uint256"},{"name":"cycleDuration","type":"uint256","internalType":"uint256"}],"outputs":[],"stateMutability":"nonpayable"},{"type":"function","name":"aiOptimizer","inputs":[],"outputs":[{"name":"","type":"address","internalType":"address"}],"stateMutability":"view"},{"type":"function","name":"allPools","inputs":[{"name":"","type":"uint256","internalType":"uint256"}],"outputs":[{"name":"","type":"address","internalType":"address"}],"stateMutability":"view"},{"type":"function","name":"createCustomPool","inputs":[{"name":"depositAmount","type":"uint256","internalType":"uint256"},{"name":"maxParticipants","type":"uint256","internalType":"uint256"},{"name":"cycleDuration","type":"uint256","internalType":"uint256"}],"outputs":[{"name":"","type":"address","internalType":"address"}],"stateMutability":"nonpayable"},{"type":"function","name":"createPoolFromTemplate","inputs":[{"name":"templateId","type":"uint256","internalType":"uint256"}],"outputs":[{"name":"","type":"address","internalType":"address"}],"stateMutability":"nonpayable"},{"type":"function","name":"getAllPools","inputs":[],"outputs":[{"name":"","type":"address[]","internalType":"address[]"}],"stateMutability":"view"},{"type":"function","name":"getPoolCount","inputs":[],"outputs":[{"name":"","type":"uint256","internalType":"uint256"}],"stateMutability":"view"},{"type":"function","name":"getTemplate","inputs":[{"name":"templateId","type":"uint256","internalType":"uint256"}],"outputs":[{"name":"name","type":"string","internalType":"string"},{"name":"depositAmount","type":"uint256","internalType":"uint256"},{"name":"maxParticipants","type":"uint256","internalType":"uint256"},{"name":"cycleDuration","type":"uint256","internalType":"uint256"},{"name":"isActive","type":"bool","internalType":"bool"}],"stateMutability":"view"},{"type":"function","name":"getTemplateCount","inputs":[],"outputs":[{"name":"","type":"uint256","internalType":"uint256"}],"stateMutability":"view"},{"type":"function","name":"getUserPools","inputs":[{"name":"user","type":"address","internalType":"address"}],"outputs":[{"name":"","type":"address[]","internalType":"address[]"}],"stateMutability":"view"},{"type":"function","name":"owner","inputs":[],"outputs":[{"name":"","type":"address","internalType":"address"}],"stateMutability":"view"},{"type":"function","name":"poolTemplates","inputs":[{"name":"","type":"uint256","internalType":"uint256"}],"outputs":[{"name":"name","type":"string","internalType":"string"},{"name":"depositAmount","type":"uint256","internalType":"uint256"},{"name":"maxParticipants","type":"uint256","internalType":"uint256"},{"name":"cycleDuration","type":"uint256","internalType":"uint256"},{"name":"isActive","type":"bool","internalType":"bool"}],"stateMutability":"view"},{"type":"function","name":"setAIOptimizer","inputs":[{"name":"_aiOptimizer","type":"address","internalType":"address"}],"outputs":[],"stateMutability":"nonpayable"},{"type":"function","name":"setTemplateActive","inputs":[{"name":"templateId","type":"uint256","internalType":"uint256"},{"name":"isActive","type":"bool","internalType":"bool"}],"outputs":[],"stateMutability":"nonpayable"},{"type":"function","name":"usdc","inputs":[],"outputs":[{"name":"","type":"address","internalType":"address"}],"stateMutability":"view"},{"type":"function","name":"userPools","inputs":[{"name":"","type":"address","internalType":"address"},{"name":"","type":"uint256","internalType":"uint256"}],"outputs":[{"name":"","type":"address","internalType":"address"}],"stateMutability":"view"},{"type":"event","name":"AIOptimizerUpdated","inputs":[{"name":"oldOptimizer","type":"address","indexed":true,"internalType":"address"},{"name":"newOptimizer","type":"address","indexed":true,"internalType":"address"}],"anonymous":false},{"type":"event","name":"PoolCreated","inputs":[{"name":"pool","type":"address","indexed":true,"internalType":"address"},{"name":"creator","type":"address","indexed":true,"internalType":"address"},{"name":"depositAmount","type":"uint256","indexed":false,"internalType":"uint256"},{"name":"maxParticipants","type":"uint256","indexed":false,"internalType":"uint256"}],"anonymous":false},{"type":"event","name":"TemplateAdded","inputs":[{"name":"templateId","type":"uint256","indexed":true,"internalType":"uint256"},{"name":"name","type":"string","indexed":false,"internalType":"string"},{"name":"depositAmount","type":"uint256","indexed":false,"internalType":"uint256"}],"anonymous":false}],"bytecode":{"object":"0x60a060405234801562000010575f80fd5b5060405162003b5c38038062003b5c8339810160408190526200003391620002fd565b6001600160a01b0381166200008e5760405162461bcd60e51b815260206004820152601460248201527f496e76616c696420555344432061646472657373000000000000000000000000604482015260640160405180910390fd5b6001600160a01b0381166080525f8054336001600160a01b03199182168117909255600180549091169091179055620000c6620000cd565b5062000494565b6040805160e081018252600a60a082019081526914db585b1b08141bdbdb60b21b60c08301528152629896806020820152600591810182905262278d0060608201526001608082018190526004805491820181555f5281519192025f8051602062003b3c83398151915201908190620001479082620003cc565b50602082810151600180840191909155604080850151600285015560608086015160038601556080958601516004958601805491151560ff19909216919091179055815160e081018352600b60a082019081526a1359591a5d5b48141bdbdb60aa1b60c083015281526302faf08094810194909452600a9184019190915262278d0090830152928101839052815492830182555f91909152805190916005025f8051602062003b3c83398151915201908190620002059082620003cc565b50602082810151600180840191909155604080850151600285015560608086015160038601556080958601516004958601805491151560ff19909216919091179055815160e081018352600a60a082019081526913185c99d948141bdbdb60b21b60c083015281526305f5e1009481019490945260149184019190915262278d0090830152928101839052815492830182555f91909152805190916005025f8051602062003b3c83398151915201908190620002c29082620003cc565b506020820151600182015560408201516002820155606082015160038201556080909101516004909101805460ff1916911515919091179055565b5f602082840312156200030e575f80fd5b81516001600160a01b038116811462000325575f80fd5b9392505050565b634e487b7160e01b5f52604160045260245ffd5b600181811c908216806200035557607f821691505b6020821081036200037457634e487b7160e01b5f52602260045260245ffd5b50919050565b601f821115620003c7575f81815260208120601f850160051c81016020861015620003a25750805b601f850160051c820191505b81811015620003c357828155600101620003ae565b5050505b505050565b81516001600160401b03811115620003e857620003e86200032c565b6200040081620003f9845462000340565b846200037a565b602080601f83116001811462000436575f84156200041e5750858301515b5f19600386901b1c1916600185901b178555620003c3565b5f85815260208120601f198616915b82811015620004665788860151825594840194600190910190840162000445565b50858210156200048457878501515f19600388901b60f8161c191681555b5050505050600190811b01905550565b608051613688620004b45f395f81816101780152610b6001526136885ff3fe608060405234801562000010575f80fd5b506004361062000110575f3560e01c806382c440e4116200009f578063a02d613e116200006b578063a02d613e1462000261578063cfd657a91462000278578063d4e67a61146200028f578063d88ff1f414620002a6575f80fd5b806382c440e4146200020b5780638da5cb5b146200021f5780638eec5d7014620002325780639816af58146200023b575f80fd5b806341d1de9711620000df57806341d1de9714620001b35780635016959a14620001ca57806350cbbe7614620001dd5780637087676d14620001f4575f80fd5b80631064aa55146200011457806331543cf414620001485780633e413bee146200017257806340d564b6146200019a575b5f80fd5b6200012b6200012536600462000d6f565b620002b0565b6040516001600160a01b0390911681526020015b60405180910390f35b6200015f6200015936600462000d9a565b620002e5565b6040516200013f95949392919062000df7565b6200012b7f000000000000000000000000000000000000000000000000000000000000000081565b620001b1620001ab36600462000e45565b62000446565b005b6200012b620001c436600462000d9a565b6200056a565b6004545b6040519081526020016200013f565b6200015f620001ee36600462000d9a565b62000593565b6200012b6200020536600462000f0d565b62000667565b6001546200012b906001600160a01b031681565b5f546200012b906001600160a01b031681565b600254620001ce565b620002526200024c36600462000f37565b6200077d565b6040516200013f919062000f53565b620001b16200027236600462000f37565b620007f2565b6200012b6200028936600462000d9a565b620008b9565b620001b1620002a036600462000fa1565b62000a6e565b6200025262000afa565b6003602052815f5260405f208181548110620002ca575f80fd5b5f918252602090912001546001600160a01b03169150829050565b60605f805f8060048054905086106200031b5760405162461bcd60e51b8152600401620003129062000fd5565b60405180910390fd5b5f6004878154811062000332576200033262000fff565b905f5260205f2090600502016040518060a00160405290815f820180546200035a9062001013565b80601f0160208091040260200160405190810160405280929190818152602001828054620003889062001013565b8015620003d75780601f10620003ad57610100808354040283529160200191620003d7565b820191905f5260205f20905b815481529060010190602001808311620003b957829003601f168201915b50505050508152602001600182015481526020016002820154815260200160038201548152602001600482015f9054906101000a900460ff1615151515815250509050805f01518160200151826040015183606001518460800151955095509550955095505091939590929450565b5f546001600160a01b03163314620004725760405162461bcd60e51b815260040162000312906200104d565b6040805160a08101825285815260208101859052908101839052606081018290526001608082018190526004805491820181555f52815160059091027f8a35acfbc15ff81a39ae7d344fd709f28e8600b4aa8c65c6b64bfe7fe36bd19b01908190620004df9082620010c3565b50602082015160018281019190915560408301516002830155606083015160038301556080909201516004918201805460ff1916911515919091179055546200052991906200118c565b7f843df95cc1fcab3a833c482f10478f1a236923b57d8c10efae639f2c83751a6d85856040516200055c929190620011b2565b60405180910390a250505050565b600281815481106200057a575f80fd5b5f918252602090912001546001600160a01b0316905081565b60048181548110620005a3575f80fd5b905f5260205f2090600502015f91509050805f018054620005c49062001013565b80601f0160208091040260200160405190810160405280929190818152602001828054620005f29062001013565b8015620006415780601f10620006175761010080835404028352916020019162000641565b820191905f5260205f20905b8154815290600101906020018083116200062357829003601f168201915b505050506001830154600284015460038501546004909501549394919390925060ff1685565b5f808411620006b25760405162461bcd60e51b8152602060048201526016602482015275125b9d985b1a590819195c1bdcda5d08185b5bdd5b9d60521b604482015260640162000312565b60028310158015620006c5575060328311155b620007135760405162461bcd60e51b815260206004820152601960248201527f5061727469636970616e7473206d75737420626520322d353000000000000000604482015260640162000312565b62015180821015620007685760405162461bcd60e51b815260206004820152601c60248201527f4379636c65206d757374206265206174206c6561737420312064617900000000604482015260640162000312565b6200077584848462000b5c565b949350505050565b6001600160a01b0381165f90815260036020908152604091829020805483518184028101840190945280845260609392830182828015620007e657602002820191905f5260205f20905b81546001600160a01b03168152600190910190602001808311620007c7575b50505050509050919050565b5f546001600160a01b031633146200081e5760405162461bcd60e51b815260040162000312906200104d565b6001600160a01b038116620008685760405162461bcd60e51b815260206004820152600f60248201526e496e76616c6964206164647265737360881b604482015260640162000312565b600180546001600160a01b038381166001600160a01b0319831681179093556040519116919082907fe384cc8054baaaaa531e4c628cb272004190c53f6e5e015595a4d6cf11c9789e905f90a35050565b6004545f908210620008df5760405162461bcd60e51b8152600401620003129062000fd5565b60048281548110620008f557620008f562000fff565b5f91825260209091206004600590920201015460ff166200094f5760405162461bcd60e51b815260206004820152601360248201527254656d706c617465206e6f742061637469766560681b604482015260640162000312565b5f6004838154811062000966576200096662000fff565b905f5260205f2090600502016040518060a00160405290815f820180546200098e9062001013565b80601f0160208091040260200160405190810160405280929190818152602001828054620009bc9062001013565b801562000a0b5780601f10620009e15761010080835404028352916020019162000a0b565b820191905f5260205f20905b815481529060010190602001808311620009ed57829003601f168201915b50505050508152602001600182015481526020016002820154815260200160038201548152602001600482015f9054906101000a900460ff161515151581525050905062000a6781602001518260400151836060015162000b5c565b9392505050565b5f546001600160a01b0316331462000a9a5760405162461bcd60e51b815260040162000312906200104d565b600454821062000abe5760405162461bcd60e51b8152600401620003129062000fd5565b806004838154811062000ad55762000ad562000fff565b5f9182526020909120600590910201600401805460ff19169115159190911790555050565b6060600280548060200260200160405190810160405280929190818152602001828054801562000b5257602002820191905f5260205f20905b81546001600160a01b0316815260019091019060200180831162000b33575b5050505050905090565b5f807f0000000000000000000000000000000000000000000000000000000000000000858585607d60405162000b929062000d45565b6001600160a01b039095168552602085019390935260408401919091526060830152608082015260a001604051809103905ff08015801562000bd6573d5f803e3d5ffd5b50600154604051635016b09f60e11b81526001600160a01b03918216600482015291925082169063a02d613e906024015f604051808303815f87803b15801562000c1e575f80fd5b505af115801562000c31573d5f803e3d5ffd5b505060405163f2fde38b60e01b81523360048201526001600160a01b038416925063f2fde38b91506024015f604051808303815f87803b15801562000c74575f80fd5b505af115801562000c87573d5f803e3d5ffd5b50506002805460018082019092557f405787fa12a823e0f2b7631cc41b3ba8828b3321ca811111fa75cd3aa3bb5ace0180546001600160a01b0386166001600160a01b03199182168117909255335f818152600360209081526040808320805497880181558352918190209095018054909316841790925581518b81529384018a9052869550935090917fd569a23a8cff45c641c5d5e4fb55b5e15e918f9acf0fc42b4909adc31f5f806c910160405180910390a395945050505050565b61247d80620011d683390190565b80356001600160a01b038116811462000d6a575f80fd5b919050565b5f806040838503121562000d81575f80fd5b62000d8c8362000d53565b946020939093013593505050565b5f6020828403121562000dab575f80fd5b5035919050565b5f81518084525f5b8181101562000dd85760208185018101518683018201520162000dba565b505f602082860101526020601f19601f83011685010191505092915050565b60a081525f62000e0b60a083018862000db2565b905085602083015284604083015283606083015282151560808301529695505050505050565b634e487b7160e01b5f52604160045260245ffd5b5f805f806080858703121562000e59575f80fd5b843567ffffffffffffffff8082111562000e71575f80fd5b818701915087601f83011262000e85575f80fd5b81358181111562000e9a5762000e9a62000e31565b604051601f8201601f19908116603f0116810190838211818310171562000ec55762000ec562000e31565b816040528281528a602084870101111562000ede575f80fd5b826020860160208301375f60209382018401529a91890135995050604088013597606001359650945050505050565b5f805f6060848603121562000f20575f80fd5b505081359360208301359350604090920135919050565b5f6020828403121562000f48575f80fd5b62000a678262000d53565b602080825282518282018190525f9190848201906040850190845b8181101562000f955783516001600160a01b03168352928401929184019160010162000f6e565b50909695505050505050565b5f806040838503121562000fb3575f80fd5b823591506020830135801515811462000fca575f80fd5b809150509250929050565b60208082526010908201526f496e76616c69642074656d706c61746560801b604082015260600190565b634e487b7160e01b5f52603260045260245ffd5b600181811c908216806200102857607f821691505b6020821081036200104757634e487b7160e01b5f52602260045260245ffd5b50919050565b6020808252600a908201526927b7363c9037bbb732b960b11b604082015260600190565b601f821115620010be575f81815260208120601f850160051c81016020861015620010995750805b601f850160051c820191505b81811015620010ba57828155600101620010a5565b5050505b505050565b815167ffffffffffffffff811115620010e057620010e062000e31565b620010f881620010f1845462001013565b8462001071565b602080601f8311600181146200112e575f8415620011165750858301515b5f19600386901b1c1916600185901b178555620010ba565b5f85815260208120601f198616915b828110156200115e578886015182559484019460019091019084016200113d565b50858210156200117c57878501515f19600388901b60f8161c191681555b5050505050600190811b01905550565b81810381811115620011ac57634e487b7160e01b5f52601160045260245ffd5b92915050565b604081525f620011c6604083018562000db2565b9050826020830152939250505056fe60a060405234801562000010575f80fd5b506040516200247d3803806200247d8339810160408190526200003391620001ba565b6001600160a01b0385166200008f5760405162461bcd60e51b815260206004820152601460248201527f496e76616c69642055534443206164647265737300000000000000000000000060448201526064015b60405180910390fd5b5f8411620000e05760405162461bcd60e51b815260206004820152601360248201527f4465706f736974206d757374206265203e203000000000000000000000000000604482015260640162000086565b6002831015620001335760405162461bcd60e51b815260206004820152601c60248201527f4e656564206174206c656173742032207061727469636970616e747300000000604482015260640162000086565b6001600160a01b039094166080908152600d8054600e80546001600160a01b031916339081179091556040805194850181528785526020850187905284018590526060909301879052600195865560029490945560039290925560049490945560ff1963010000009094029390931662ffff01600160b81b0319909116171790556200020c565b5f805f805f60a08688031215620001cf575f80fd5b85516001600160a01b0381168114620001e6575f80fd5b602087015160408801516060890151608090990151929a91995097965090945092505050565b6080516122206200025d5f395f818161032e015281816107e001528181610a9701528181610bd3015281816110c1015281816118e80152818161198701528181611c710152611ef801526122205ff3fe608060405234801561000f575f80fd5b50600436106101f2575f3560e01c80638371e6b411610114578063bab2f552116100a9578063e68b775711610079578063e68b7757146104db578063f1139d0f146104ee578063f2fde38b146104f7578063fa08c9081461050a578063fe18818414610512575f80fd5b8063bab2f552146104b4578063cc009679146104bd578063d6eb5910146104c6578063df868ed3146104ce575f80fd5b8063a02d613e116100e4578063a02d613e1461047e578063a71a99b214610491578063ad605729146104a4578063b91503a6146104ac575f80fd5b80638371e6b4146104415780638da5cb5b1461044957806392c59082146104635780639d1fef811461046b575f80fd5b806340732c891161018a57806360246c881161015a57806360246c881461039e57806379502c55146103e55780638065cce11461041b57806382c440e41461042e575f80fd5b806340732c891461035057806348bb357e146103585780635ab20249146103805780635f96dc1114610395575f80fd5b806313f14fee116101c557806313f14fee146102f757806333a99e041461030957806334c15f58146103135780633e413bee14610329575f80fd5b8063093c87f3146101f657806309e69ede1461021d5780630e6fdaa1146102b957806311e776de146102e4575b5f80fd5b600d5461020890610100900460ff1681565b60405190151581526020015b60405180910390f35b61027661022b36600461200c565b600560208190525f91825260409091208054600182015460028301546003840154600485015494909501546001600160a01b03909316949193909260ff808316926101009004169087565b604080516001600160a01b039098168852602088019690965294860193909352606085019190915215156080840152151560a083015260c082015260e001610214565b6102cc6102c7366004612039565b610525565b6040516001600160a01b039091168152602001610214565b6102086102f236600461200c565b61054d565b5f546102cc906001600160a01b031681565b610311610588565b005b61031b61094e565b604051908152602001610214565b6102cc7f000000000000000000000000000000000000000000000000000000000000000081565b61031161098b565b6102cc610366366004612039565b600c6020525f90815260409020546001600160a01b031681565b610388610cff565b6040516102149190612050565b61031b60085481565b6103a6610f2b565b60408051988952602089019790975295870194909452606086019290925215156080850152151560a084015260c083015260e082015261010001610214565b6001546002546003546004546103fb9392919084565b604080519485526020850193909352918301526060820152608001610214565b600d546102089062010000900460ff1681565b600e546102cc906001600160a01b031681565b610311610f82565b600d546102cc90630100000090046001600160a01b031681565b6102086112be565b61031161047936600461200c565b6112e4565b61031161048c36600461200c565b611546565b61020861049f36600461200c565b6115e1565b60065461031b565b61031b611619565b61031b60075481565b61031b600a5481565b61031b6116da565b600d546102089060ff1681565b6103116104e936600461200c565b611749565b61031b60095481565b61031161050536600461200c565b611aa2565b610311611b47565b600b546102cc906001600160a01b031681565b60068181548110610534575f80fd5b5f918252602090912001546001600160a01b0316905081565b5f8060015f015460075461056191906120b0565b6001600160a01b039093165f90815260056020526040902060020154929092101592915050565b600d54630100000090046001600160a01b031633146105c25760405162461bcd60e51b81526004016105b9906120c7565b60405180910390fd5b600d5460ff1680156105dc5750600d5462010000900460ff165b6105f85760405162461bcd60e51b81526004016105b9906120eb565b6106006112be565b6106415760405162461bcd60e51b81526020600482015260126024820152714379636c65206e6f7420636f6d706c65746560701b60448201526064016105b9565b5f61064a610cff565b90505f8151116106925760405162461bcd60e51b81526020600482015260136024820152724e6f20656c696769626c652077696e6e65727360681b60448201526064016105b9565b5f815142446007546040516020016106bd939291909283526020830191909152604082015260600190565b604051602081830303815290604052805190602001205f1c6106df9190612128565b90505f8282815181106106f4576106f461213b565b602002602001015190505f600180015460015f015461071391906120b0565b90505f6001800154610723611619565b61072d919061214f565b90505f61073a8284612162565b5f549091506001600160a01b0316156107ba575f54604051632e1a7d4d60e01b8152600481018390526001600160a01b0390911690632e1a7d4d906024016020604051808303815f875af1158015610794573d5f803e3d5ffd5b505050506040513d601f19601f820116820180604052508101906107b89190612175565b505b60405163a9059cbb60e01b81526001600160a01b038581166004830152602482018390527f0000000000000000000000000000000000000000000000000000000000000000169063a9059cbb906044016020604051808303815f875af1158015610826573d5f803e3d5ffd5b505050506040513d601f19601f8201168201806040525081019061084a919061218c565b61088f5760405162461bcd60e51b815260206004820152601660248201527514185e5bdd5d081d1c985b9cd9995c8819985a5b195960521b60448201526064016105b9565b6001600160a01b0384165f818152600560209081526040808320600401805460ff19166001179055600780548452600c83529281902080546001600160a01b03199081168617909155600b80549091168517905591548251858152918201527f509dbfab2c074202d576ce93478af7019ee2a29bdd433154579904b0876a0840910160405180910390a2600254600754106109315761092c611d87565b610946565b60078054905f610940836121ab565b91905055505b505050505050565b6004546002545f91606491610965906001906121c3565b60015461097291906120b0565b61097c91906120b0565b610986919061214f565b905090565b600d5460ff1680156109a55750600d5462010000900460ff165b6109c15760405162461bcd60e51b81526004016105b9906120eb565b335f90815260056020526040902060040154610100900460ff16610a1b5760405162461bcd60e51b8152602060048201526011602482015270139bdd0818481c185c9d1a58da5c185b9d607a1b60448201526064016105b9565b610a243361054d565b15610a715760405162461bcd60e51b815260206004820152601c60248201527f416c7265616479206465706f73697465642074686973206379636c650000000060448201526064016105b9565b6001546040516323b872dd60e01b815233600482015230602482015260448101919091527f00000000000000000000000000000000000000000000000000000000000000006001600160a01b0316906323b872dd906064016020604051808303815f875af1158015610ae5573d5f803e3d5ffd5b505050506040513d601f19601f82011682018060405250810190610b09919061218c565b610b555760405162461bcd60e51b815260206004820152601760248201527f4465706f736974207472616e73666572206661696c656400000000000000000060448201526064016105b9565b600154335f9081526005602052604081206002018054909190610b79908490612162565b9091555050600154600980545f90610b92908490612162565b90915550505f546001600160a01b031615610cb6575f5460015460405163095ea7b360e01b81526001600160a01b03928316600482015260248101919091527f00000000000000000000000000000000000000000000000000000000000000009091169063095ea7b3906044016020604051808303815f875af1158015610c1b573d5f803e3d5ffd5b505050506040513d601f19601f82011682018060405250810190610c3f919061218c565b505f5460015460405163b6b55f2560e01b81526001600160a01b039092169163b6b55f2591610c749160040190815260200190565b6020604051808303815f875af1158015610c90573d5f803e3d5ffd5b505050506040513d601f19601f82011682018060405250810190610cb49190612175565b505b60015460075460405133927f0b05f0d1cd0819f155b8a61f60baf7767c1ee49d04aeaab701df236140eb93f992610cf592918252602082015260400190565b60405180910390a2565b60605f805b600654811015610dc25760055f60068381548110610d2457610d2461213b565b5f9182526020808320909101546001600160a01b0316835282019290925260400190206004015460ff610100909104168015610d9d575060055f60068381548110610d7157610d7161213b565b5f9182526020808320909101546001600160a01b0316835282019290925260400190206004015460ff16155b15610db05781610dac816121ab565b9250505b80610dba816121ab565b915050610d04565b505f8167ffffffffffffffff811115610ddd57610ddd6121d6565b604051908082528060200260200182016040528015610e06578160200160208202803683370190505b5090505f805b600654811015610f225760055f60068381548110610e2c57610e2c61213b565b5f9182526020808320909101546001600160a01b0316835282019290925260400190206004015460ff610100909104168015610ea5575060055f60068381548110610e7957610e7961213b565b5f9182526020808320909101546001600160a01b0316835282019290925260400190206004015460ff16155b15610f105760068181548110610ebd57610ebd61213b565b905f5260205f20015f9054906101000a90046001600160a01b0316838381518110610eea57610eea61213b565b6001600160a01b039092166020928302919091019091015281610f0c816121ab565b9250505b80610f1a816121ab565b915050610e0c565b50909392505050565b600154600254600654600754600d546009545f958695869586958695869586958695909490939092909160ff6201000083048116921690610f6a611619565b969f959e50939c50919a509850965094509092509050565b600d5462010000900460ff1615610fd25760405162461bcd60e51b8152602060048201526014602482015273141bdbdb08185b1c9958591e481cdd185c9d195960621b60448201526064016105b9565b600d5460ff16610ff45760405162461bcd60e51b81526004016105b9906120eb565b600d54610100900460ff161561103b5760405162461bcd60e51b815260206004820152600c60248201526b141bdbdb081a5cc8199d5b1b60a21b60448201526064016105b9565b335f90815260056020526040902060040154610100900460ff16156110935760405162461bcd60e51b815260206004820152600e60248201526d105b1c9958591e481a9bda5b995960921b60448201526064016105b9565b5f61109c61094e565b6040516323b872dd60e01b8152336004820152306024820152604481018290529091507f00000000000000000000000000000000000000000000000000000000000000006001600160a01b0316906323b872dd906064016020604051808303815f875af115801561110f573d5f803e3d5ffd5b505050506040513d601f19601f82011682018060405250810190611133919061218c565b61117f5760405162461bcd60e51b815260206004820152601a60248201527f436f6c6c61746572616c207472616e73666572206661696c656400000000000060448201526064016105b9565b6040805160e0810182523380825260208083018581525f8486018181526060860182815260808701838152600160a089018181524260c08b019081528987526005988990529a862099518a546001600160a01b03919091166001600160a01b0319918216178b5596518a83015593516002808b0191909155925160038a01559051600489018054945115156101000261ff00199215159290921661ffff19909516949094171790925596519590930194909455600680549283018155938490527ff652222313e28459528d920b65115c16c04f3efc82aaedc97be59f3f377c0d3f90910180549091169091179055905490541061128657600d805461ff0019166101001790555b60405181815233907f8123641a38ad3476ac345fc38496fa9edc26a110698c8c0c9fffc30f546f918c9060200160405180910390a250565b6003546007545f916112cf916120b0565b6008546112dc9190612162565b421015905090565b600d54630100000090046001600160a01b031633146113155760405162461bcd60e51b81526004016105b9906120c7565b600d5460ff16801561132f5750600d5462010000900460ff165b61134b5760405162461bcd60e51b81526004016105b9906120eb565b6001600160a01b0381165f90815260056020526040902060040154610100900460ff166113b35760405162461bcd60e51b8152602060048201526016602482015275139bdd081858dd1a5d99481c185c9d1a58da5c185b9d60521b60448201526064016105b9565b6113bc816115e1565b6113fc5760405162461bcd60e51b8152602060048201526011602482015270139bc81b5a5cdcd959081c185e5b595b9d607a1b60448201526064016105b9565b600180546001600160a01b0383165f9081526005602052604090209091015481116114fd576001600160a01b0382165f908152600560205260408120600101805483929061144b9084906121c3565b90915550506001600160a01b0382165f908152600560205260408120600301805491611476836121ab565b91905055508060095f82825461148c9190612162565b92505081905550816001600160a01b03167f403feb2cd85cc25c910fe59289105b583f08fe9e4335ebbb08c1851f47ff2d34826040516114f4918152604060208201819052600e908201526d135a5cdcd959081c185e5b595b9d60921b606082015260800190565b60405180910390a25b6001600160a01b0382165f908152600560205260408120600101549003611542576001600160a01b0382165f908152600560205260409020600401805461ff00191690555b5050565b600d54630100000090046001600160a01b031633146115775760405162461bcd60e51b81526004016105b9906120c7565b6001600160a01b0381166115bf5760405162461bcd60e51b815260206004820152600f60248201526e496e76616c6964206164647265737360881b60448201526064016105b9565b600e80546001600160a01b0319166001600160a01b0392909216919091179055565b5f6115eb8261054d565b158015611613575060035460075461160391906120b0565b6008546116109190612162565b42115b92915050565b5f80546001600160a01b031661162e57505f90565b5f805f9054906101000a90046001600160a01b03166001600160a01b031663caa648b46040518163ffffffff1660e01b8152600401602060405180830381865afa15801561167e573d5f803e3d5ffd5b505050506040513d601f19601f820116820180604052508101906116a29190612175565b90505f6009546116b06116da565b6116ba9190612162565b90508082116116c9575f6116d3565b6116d381836121c3565b9250505090565b5f80805b6006548110156117435760055f600683815481106116fe576116fe61213b565b5f9182526020808320909101546001600160a01b0316835282019290925260400190206001015461172f9083612162565b91508061173b816121ab565b9150506116de565b50919050565b600e546001600160a01b03163314806117735750600d54630100000090046001600160a01b031633145b6117b35760405162461bcd60e51b815260206004820152601160248201527027b7363c9020a49037b83a34b6b4bd32b960791b60448201526064016105b9565b5f546001600160a01b031680156118af575f805f9054906101000a90046001600160a01b03166001600160a01b031663caa648b46040518163ffffffff1660e01b8152600401602060405180830381865afa158015611814573d5f803e3d5ffd5b505050506040513d601f19601f820116820180604052508101906118389190612175565b905080156118ad575f54604051632e1a7d4d60e01b8152600481018390526001600160a01b0390911690632e1a7d4d906024016020604051808303815f875af1158015611887573d5f803e3d5ffd5b505050506040513d601f19601f820116820180604052508101906118ab9190612175565b505b505b5f80546001600160a01b0319166001600160a01b03841690811790915515611a5e576040516370a0823160e01b81523060048201525f907f00000000000000000000000000000000000000000000000000000000000000006001600160a01b0316906370a0823190602401602060405180830381865afa158015611935573d5f803e3d5ffd5b505050506040513d601f19601f820116820180604052508101906119599190612175565b90508015611a5c5760405163095ea7b360e01b81526001600160a01b038481166004830152602482018390527f0000000000000000000000000000000000000000000000000000000000000000169063095ea7b3906044016020604051808303815f875af11580156119cd573d5f803e3d5ffd5b505050506040513d601f19601f820116820180604052508101906119f1919061218c565b5060405163b6b55f2560e01b8152600481018290526001600160a01b0384169063b6b55f25906024016020604051808303815f875af1158015611a36573d5f803e3d5ffd5b505050506040513d601f19601f82011682018060405250810190611a5a9190612175565b505b505b816001600160a01b0316816001600160a01b03167fbffd2f20a06ca0304329080309bdd314339b2a5afe9927f8b3100220b661c94760405160405180910390a35050565b600d54630100000090046001600160a01b03163314611ad35760405162461bcd60e51b81526004016105b9906120c7565b6001600160a01b038116611b1b5760405162461bcd60e51b815260206004820152600f60248201526e496e76616c6964206164647265737360881b60448201526064016105b9565b600d80546001600160a01b039092166301000000026301000000600160b81b0319909216919091179055565b600d54630100000090046001600160a01b03163314611b785760405162461bcd60e51b81526004016105b9906120c7565b600d54610100900460ff16611bc35760405162461bcd60e51b8152602060048201526011602482015270141bdbdb081b9bdd08199d5b1b081e595d607a1b60448201526064016105b9565b600d5462010000900460ff1615611c135760405162461bcd60e51b8152602060048201526014602482015273141bdbdb08185b1c9958591e481cdd185c9d195960621b60448201526064016105b9565b600d805462ff00001916620100001790554260085560016007555f546001600160a01b031615611d4a575f611c466116da565b5f5460405163095ea7b360e01b81526001600160a01b039182166004820152602481018390529192507f0000000000000000000000000000000000000000000000000000000000000000169063095ea7b3906044016020604051808303815f875af1158015611cb7573d5f803e3d5ffd5b505050506040513d601f19601f82011682018060405250810190611cdb919061218c565b505f5460405163b6b55f2560e01b8152600481018390526001600160a01b039091169063b6b55f25906024016020604051808303815f875af1158015611d23573d5f803e3d5ffd5b505050506040513d601f19601f82011682018060405250810190611d479190612175565b50505b7f510ad7fdc6893c3992445eb80eeade3af54768c0d8dc2cc8fc57b1c9afa1491d600854604051611d7d91815260200190565b60405180910390a1565b600d805460ff19169055611d99611619565b600a8190556002545f91611dad919061214f565b90505f5b600654811015611fcd575f60068281548110611dcf57611dcf61213b565b5f9182526020808320909101546001600160a01b0316808352600590915260409091206004015490915060ff610100909104168015611e2757506001600160a01b0381165f9081526005602052604090206001015415155b15611fba576001600160a01b0381165f90815260056020526040812060010154611e52908590612162565b5f549091506001600160a01b031615611ed2575f54604051632e1a7d4d60e01b8152600481018390526001600160a01b0390911690632e1a7d4d906024016020604051808303815f875af1158015611eac573d5f803e3d5ffd5b505050506040513d601f19601f82011682018060405250810190611ed09190612175565b505b60405163a9059cbb60e01b81526001600160a01b038381166004830152602482018390527f0000000000000000000000000000000000000000000000000000000000000000169063a9059cbb906044016020604051808303815f875af1158015611f3e573d5f803e3d5ffd5b505050506040513d601f19601f82011682018060405250810190611f62919061218c565b506001600160a01b0382165f818152600560209081526040918290206001015482519081529081018790527f6317b02bf4f9d77ff9f12b927d1b0bb5831458350ded642ec3d9fc47c5451f9d910160405180910390a2505b5080611fc5816121ab565b915050611db1565b507f7ec14564eed3e841911f7412fd555aa022b64c2b1ae4b3da14fcacc8c0c4bf71600a5460405161200191815260200190565b60405180910390a150565b5f6020828403121561201c575f80fd5b81356001600160a01b0381168114612032575f80fd5b9392505050565b5f60208284031215612049575f80fd5b5035919050565b602080825282518282018190525f9190848201906040850190845b818110156120905783516001600160a01b03168352928401929184019160010161206b565b50909695505050505050565b634e487b7160e01b5f52601160045260245ffd5b80820281158282048414176116135761161361209c565b6020808252600a908201526927b7363c9037bbb732b960b11b604082015260600190565b6020808252600f908201526e506f6f6c206e6f742061637469766560881b604082015260600190565b634e487b7160e01b5f52601260045260245ffd5b5f8261213657612136612114565b500690565b634e487b7160e01b5f52603260045260245ffd5b5f8261215d5761215d612114565b500490565b808201808211156116135761161361209c565b5f60208284031215612185575f80fd5b5051919050565b5f6020828403121561219c575f80fd5b81518015158114612032575f80fd5b5f600182016121bc576121bc61209c565b5060010190565b818103818111156116135761161361209c565b634e487b7160e01b5f52604160045260245ffdfea2646970667358221220ba2fda81e1e7d50d87c541fc1ad38d1408b44e40e270f24eceae5a1191349f8964736f6c63430008140033a2646970667358221220038a0265314e2f1083dbf19a8850152d6ef4b461ea5d669bc6ce067a8dcd11d164736f6c634300081400338a35acfbc15ff81a39ae7d344fd709f28e8600b4aa8c65c6b64bfe7fe36bd19b","linkReferences":{}},"methodIdentifiers":{"addTemplate(string,uint256,uint256,uint256)":"40d564b6","aiOptimizer()":"82c440e4","allPools(uint256)":"41d1de97","createCustomPool(uint256,uint256,uint256)":"7087676d","createPoolFromTemplate(uint256)":"cfd657a9","getAllPools()":"d88ff1f4","getPoolCount()":"8eec5d70","getTemplate(uint256)":"31543cf4","getTemplateCount()":"5016959a","getUserPools(address)":"9816af58","owner()":"8da5cb5b","poolTemplates(uint256)":"50cbbe76","setAIOptimizer(address)":"a02d613e","setTemplateActive(uint256,bool)":"d4e67a61","usdc()":"3e413bee","userPools(address,uint256)":"1064aa55"},"id":17}